:100000000C9499000C94C1000C94C1000C94C10094
:100010000C94C1000C94C1000C94C1000C94C1005C
:100020000C94C1000C94C1000C94C1000C94C1004C
:100030000C94C1000C94C1000C94C1000C94C1003C
:100040000C94A9030C94C1000C9418030C94F202B4
:100050000C94C1000C94C1000C94C1000C94C1001C
:100060000C944C040C94C10007634236B79BD8A78C
:100070001A39685618AEBAAB558C1D3CB7CC5763CD
:10008000BD6DEDFD753EF6177231BF000000803F7B
:1000900008000000BE922449123EABAAAA2ABECD97
:1000A000CCCC4C3E00000080BEABAAAAAA3E000009
:1000B0000000BF000000803F000000000008417801
:1000C000D3BB4387D1133D190E3CC3BD4282AD2B38
:1000D0003E68EC8276BED98FE1A93E4C80EFFFBE30
:1000E00001C4FF7F3F000000000000000000250069
:1000F00028002B0004040404040404040202020285
:1001000002020303030303030102040810204080DA
:100110000102040810200102040810200000000859
:1001200000020100000304070000000000000000BE
:10013000CD1111241FBECFEFD8E0DEBFCDBF11E03F
:10014000A0E0B1E0E0E4FEE202C005900D92A43E22
:10015000B107D9F723E0A4EEB1E001C01D92A539A3
:10016000B207E1F710E0C9E9D0E004C02197FE0131
:100170000E940417C839D107C9F70E947F090C945F
:100180001E170C94000008950895CF92DF92EF920D
:10019000FF920F931F93CF93DF936C017A018B0132
:1001A000C0E0D0E0CE15DF0581F0D8016D918D0162
:1001B000D601ED91FC910190F081E02DC6010995E9
:1001C000892B11F02196EECF7E01C701DF91CF91EF
:1001D0001F910F91FF90EF90DF90CF900895FC0159
:1001E000538D448D252F30E0842F90E0821B930B9C
:1001F000541710F0CF96089501970895FC01918D42
:10020000828D981761F0828DDF01A80FB11D5D9678
:100210008C91928D9F5F9F73928F90E008958FEFE6
:100220009FEF0895FC01918D828D981731F0828D9A
:10023000E80FF11D858D90E008958FEF9FEF0895F1
:10024000FC01918D228D892F90E0805C9F4F821B55
:1002500091098F73992708958AEA92E00E942001FC
:1002600021E0892B09F420E0822F0895FC01848D80
:10027000DF01A80FB11DA35ABF4F2C91848D90E0D0
:1002800001968F739927848FA689B7892C93A089AB
:10029000B1898C91837080648C93938D848D981335
:1002A00006C00288F389E02D80818F7D80830895C8
:1002B000EF92FF920F931F93CF93DF93EC0181E0B6
:1002C000888F9B8D8C8D981305C0E889F989808172
:1002D00085FD26C0F62E0B8D10E00F5F1F4F0F73AC
:1002E0001127E02E8C8DE8120CC00FB607FCFACF58
:1002F000E889F989808185FFF5CFCE010E9436011A
:10030000F1CF8B8DFE01E80FF11DE35AFF4FF08214
:100310009FB7F8940B8FEA89FB89808180620AC0BD
:100320009FB7F894EE89FF896083E889F989808115
:100330008370806480839FBF81E090E0DF91CF91E4
:100340001F910F91FF90EF900895CF93DF93EC01F1
:10035000888D8823C9F0EA89FB89808185FD05C0E5
:10036000A889B9898C9186FD0FC00FB607FCF5CF1F
:10037000808185FFF2CFA889B9898C9185FFEDCF67
:10038000CE010E943601E7CFDF91CF91089580E042
:1003900090E0892B29F00E942C0181110C9400001F
:1003A000089590E0FC01E45EFE4F2491FC01E85FBB
:1003B000FE4F3491FC01EC50FF4FE491EE2309F421
:1003C0003CC0222339F1233091F038F42130A9F0D8
:1003D000223001F584B58F7D12C0273091F028308E
:1003E000A1F02430B9F4809180008F7D03C080910A
:1003F00080008F77809380000DC084B58F7784BD97
:1004000009C08091B0008F7703C08091B0008F7DCC
:100410008093B000F0E0EE0FFF1FE651FF4FA59173
:10042000B4919FB7F894611104C08C913095382332
:1004300002C0EC913E2B3C939FBF08954091050272
:10044000262F30E0240F311D21323105DCF42091BC
:10045000A4022430C9F4FC0180E090E0861758F42F
:10046000309105022191DC01AB51BE4FA30FB11DAC
:100470002C930196F3CF80910502680F60930502DB
:1004800080E0089581E0089582E008951092A4022A
:1004900081E08093830210927E0261E082E10E94FB
:1004A000D10161E083E10E94D101E9EBF0E08081BC
:1004B0008E7F808380818D7F808388E48093B800E5
:1004C00085E48093BC0008950895E0915A028091DC
:1004D0005902E81730F4F0E0EC57FD4F808190E0CE
:1004E00008958FEF9FEF089590915A0280915902DD
:1004F000981750F4E92FF0E0EC57FD4F208130E0E1
:100500009F5F90935A0202C02FEF3FEFC9010895F9
:100510008091590290E020915A02821B910908951E
:10052000CF92DF92EF92FF920F931F93CF93DF93BF
:100530007C01CB018A0120915D02222389F0EB012D
:100540006B01C40ED51ECC15DD0569F06991D7018C
:10055000ED91FC910190F081E02DC7010995F3CF59
:10056000642F0E941E02C801DF91CF911F910F914D
:10057000FF90EF90DF90CF900895CF93DF931F927D
:10058000CDB7DEB7698320915D022223D1F020919F
:100590005B02203240F021E030E0FC013383228313
:1005A00080E090E015C080915C02E82FF0E0E75C0D
:1005B000FD4F998190838F5F80935C0280935B02F3
:1005C00005C061E0CE0101960E941E0281E090E02C
:1005D0000F90DF91CF910895089580E090E0089505
:1005E0000E9419171F920F920FB60F9211242F938A
:1005F0003F934F935F936F937F938F939F93AF93AB
:10060000BF93EF93FF938AEA92E00E943601FF9135
:10061000EF91BF91AF919F918F917F916F915F917A
:100620004F913F912F910F900FBE0F901F901895F3
:100630001F920F920FB60F9211242F938F939F93B7
:10064000EF93FF93E091BA02F091BB028081E091B9
:10065000C002F091C10282FD12C090818091C3025C
:100660008F5F8F732091C402821751F0E091C30213
:10067000F0E0E655FD4F958F8093C30201C0808165
:10068000FF91EF919F918F912F910F900FBE0F903F
:100690001F9018953FB7F89480912D0290912E02EB
:1006A000A0912F02B091300226B5A89B05C02F3F24
:1006B00019F00196A11DB11D3FBFBA2FA92F982F88
:1006C0008827820F911DA11DB11DBC01CD0142E003
:1006D000660F771F881F991F4A95D1F708958F924B
:1006E0009F92AF92BF92CF92DF92EF92FF926B01F7
:1006F0007C010E944A034B015C01C114D104E10456
:10070000F104F1F00E944A03DC01CB018819990938
:10071000AA09BB09883E9340A105B10570F321E009
:10072000C21AD108E108F10888EE880E83E0981E0D
:10073000A11CB11CC114D104E104F10419F7DDCFEF
:10074000FF90EF90DF90CF90BF90AF909F908F90F1
:1007500008951F920F920FB60F9211242F933F937B
:100760008F939F93AF93BF938091290290912A0218
:10077000A0912B02B0912C023091280223E0230F8C
:100780002D3720F40196A11DB11D05C026E8230FC9
:100790000296A11DB11D20932802809329029093F7
:1007A0002A02A0932B02B0932C0280912D029091EB
:1007B0002E02A0912F02B09130020196A11DB11D11
:1007C00080932D0290932E02A0932F02B0933002BB
:1007D000BF91AF919F918F913F912F910F900FBE3D
:1007E0000F901F901895CF93DF9391E09093E401C1
:1007F0008823B9F0C091B800D091BA008091BC00B4
:100800008A7B8093BC0060E082E10E94D10160E0BD
:1008100083E10E94D1010E944602D093BA00C093A6
:10082000B800DF91CF91089585ED8093BC00809151
:10083000A6029091A702A091A802B091A9020796E2
:10084000A11DB11D23E0B695A795979587952A958B
:10085000D1F72091BC0024FF1CC04091A60250910A
:10086000A7026091A8027091A902452B462B472B45
:1008700081F30097A105B10541F02AE22A95F1F72D
:1008800000C00197A109B109E4CF8091A5020C94A1
:10089000F3031092A40208951F920F920FB60F92C5
:1008A00011242F933F934F935F936F937F938F9375
:1008B0009F93AF93BF93EF93FF938091B900887F8D
:1008C000803609F49CC068F5883209F45BC090F466
:1008D000803109F454C038F4882309F4F6C0883014
:1008E00009F44DC0F6C0883109F44CC0803209F4D7
:1008F0005DC0EFC0803409F468C048F4803309F467
:1009000055C0883309F0E5C080938202D8C0803595
:1009100009F44FC0883509F45DC0883409F0D9C0A6
:10092000D6C0883909F4C7C0A8F4883709F467C06D
:1009300038F4883609F463C0803709F460C0C9C050
:10094000883809F4B8C0803909F45FC0803809F0EC
:10095000C0C05BC0803B09F486C038F4803A09F41B
:1009600066C0883A09F47FC0B4C0803C09F4A7C0CF
:10097000883C09F4A4C0883B09F48AC0AAC08091CD
:100980007F0210C09091810280918002981770F5CB
:10099000E091810281E08E0F80938102F0E0E25AC3
:1009A000FD4F80818093BB0085EC86C080938202DE
:1009B0008EC0E091810281E08E0F80938102809150
:1009C000BB00F0E0E25AFD4F80839091810280915C
:1009D00080026EC0E091810281E08E0F80938102DF
:1009E0008091BB00F0E0E25AFD4F8083809183024A
:1009F00081116DC081E080937E0284EA61C083E052
:100A00008093A40210922702CFCF809127028032D8
:100A100008F051C0E091270281E08E0F80932702F9
:100A20008091BB00F0E0E95FFD4F8083BDCF85EC96
:100A30008093BC001092A40280912702803230F48F
:100A4000E0912702F0E0E95FFD4F108260912702FC
:100A500070E0E0913102F091320287E092E0099576
:100A60001092270236C084E08093A40210920602FE
:100A700010920502E0913302F091340209958091C1
:100A80000502811105C081E0809305021092E50105
:100A9000E091060281E08E0F80930602F0E0EB51B8
:100AA000FE4F80818093BB009091060280910502E9
:100AB000981708F479CF85E88093BC000AC085ECCC
:100AC0008093BC001092A40204C0109282020E9483
:100AD0001404FF91EF91BF91AF919F918F917F91FE
:100AE0006F915F914F913F912F910F900FBE0F909B
:100AF0001F9018958F929F92AF92BF92CF92DF92E4
:100B0000EF92FF920F931F93CF93DF93F82ED62F80
:100B1000613208F0BBC00E944A034B015C01C091E6
:100B2000A402CC2331F18091A6029091A702A0915A
:100B3000A802B091A902892B8A2B8B2B81F30E94EA
:100B40004A030091A6021091A7022091A8023091B9
:100B5000A902DC01CB0188199909AA09BB09081768
:100B600019072A073B07D8F68091A5020E94F303D4
:100B70008DC081E08093A402809383029FEF9093C5
:100B80008202109281029D0F9093800280937F02D7
:100B900090917F028F2D880F892B80937F02809107
:100BA0007E02813089F510927E020E944A036B0119
:100BB0007C0180917F028093BB008091A60290917E
:100BC000A702A091A802B091A902892B8A2B8B2B96
:100BD000A9F00E944A038090A6029090A702A090DC
:100BE000A802B090A902DC01CB018C199D09AE09C5
:100BF000BF0988169906AA06BB0690F18091BC0031
:100C000083FDD7CF85EC01C085EE8093BC000E94A8
:100C10004A036B017C018091A402813031F58091FF
:100C2000A6029091A702A091A802B091A902892BD7
:100C30008A2B8B2B81F30E944A038090A60290900E
:100C4000A702A090A802B090A902DC01CB018C19E8
:100C50009D09AE09BF0988169906AA06BB06D8F6F3
:100C60008091A5020E94F30312C0809181028D172A
:100C700010F4D0918102EEE5F2E0A4E8B2E0C0E029
:100C8000CD1729F081918D93CF5FFACFC0E08C2FE3
:100C9000DF91CF911F910F91FF90EF90DF90CF9058
:100CA000BF90AF909F908F90089591E090935D02D8
:100CB0008093940310925C0210925B02089561325B
:100CC00008F060E20E947A0510925A02809359025D
:100CD00008958F929F92AF92BF92CF92DF92EF9240
:100CE000FF920F931F93CF93DF9310915B0211320A
:100CF00008F0C2C0D09194030E944A036B017C01AA
:100D0000C091A402CC2311F18091A6029091A70278
:100D1000A091A802B091A902892B8A2B8B2B81F379
:100D20000E944A038090A6029090A702A090A80279
:100D3000B090A902DC01CB018C199D09AE09BF0955
:100D400088169906AA06BB06D8F682C082E0809370
:100D5000A40281E0809383028FEF8093820210923D
:100D6000810210938002A9E3B2E0EEE5F2E080E0B8
:100D7000181721F09D9191938F5FFACF10927F0207
:100D800090917F028D2F880F892B80937F02809115
:100D90007E02813089F510927E020E944A036B0127
:100DA0007C0180917F028093BB008091A60290918C
:100DB000A702A091A802B091A902892B8A2B8B2BA4
:100DC000A9F00E944A030091A6021091A702209167
:100DD000A8023091A902DC01CB018C199D09AE0952
:100DE000BF09081719072A073B0790F18091BC003B
:100DF00083FDD7CF85EC01C085EE8093BC000E94B7
:100E00004A036B017C018091A402823039F5809104
:100E1000A6029091A702A091A802B091A902892BE5
:100E20008A2B8B2B81F30E944A030091A60210911A
:100E3000A7022091A8023091A902DC01CB018C19F4
:100E40009D09AE09BF09081719072A073B07D8F6FD
:100E50008091A5020E94F303C5E013C08091820235
:100E60008F3F79F080918202803241F0809182023E
:100E7000803331F0C4E005C0C1E003C0C2E001C06E
:100E8000C3E010925C0210925B0210925D028C2F04
:100E9000DF91CF911F910F91FF90EF90DF90CF9056
:100EA000BF90AF909F908F900895682F87E493E054
:100EB0000C94BD02BF92CF92DF92EF92FF920F93FC
:100EC0001F93CF93DF9387E70E9455068EE190E052
:100ED0000E9455070E9469066AE070E080E090E099
:100EE0000E946F0383E5E82E83E0F82EC0EAD0E08D
:100EF00000E010E087E70E945506CE010E945507EA
:100F00000E94690662E087E70E947A0510925A0201
:100F100080935902080F111D87E493E00E94740228
:100F2000B82E87E493E00E947402DB2CC12C8C293C
:100F30009D29F701819391937F012296C03BD105B2
:100F4000C9F681E0101611060CF080E0DF91CF9118
:100F50001F910F91FF90EF90DF90CF90BF90089579
:100F6000009769F0FC0101900020E9F73197AF018B
:100F7000481B590BBC018AEA92E00C94C50080E042
:100F800090E00895CF93DF930E94B007EC0188ECC6
:100F900091E00E94B0078C0F9D1FDF91CF910895C3
:100FA000BF92CF92DF92EF92FF920F931F93CF9356
:100FB000DF9386E70E9455068EE190E00E94550778
:100FC0000E9469066AE070E080E090E00E946F0392
:100FD000EFE6EE2EE3E0FE2E00EA10E086E70E9448
:100FE0005506C8010E9455070E94690662E086E71F
:100FF0000E947A0510925A028093590287E493E086
:101000000E947402B82E87E493E00E947402DB2CE5
:10101000C12C8C299D29F701819391937F010E5F4B
:101020001F4F0E3A1105D1F680916F039091700316
:10103000A92FA295AF709F709093700380936F0358
:1010400010927E0310927D0340E050E020E030E0FB
:10105000CA0195958795880F991FFC01E159FC4FAE
:1010600040FF04C08081282788E00AC08181C82F02
:1010700090E0D92F2C273D27F7CF9B01815049F0D5
:10108000B901660F771F37FFF8CF9B01E0E33E27DA
:10109000F5CF4F5F5F4F40315105D1F6932F9295B9
:1010A0009F7081E0A91380E0DF91CF911F910F9194
:1010B000FF90EF90DF90CF90BF9008952F923F92D6
:1010C0004F925F926F927F928F929F92AF92BF9258
:1010D000CF92DF92EF92FF920F931F93CF93DF9304
:1010E000CDB7DEB7A4970FB6F894DEBF0FBECDBF65
:1010F0004B015C01F42E9B01AC010E9499148823E2
:1011000019F087ED91E027C024013501E89477F8C4
:101110002FEF3FEF4FE75FE7C301B2010E94991441
:1011200081110DC02FEF3FEF4FE75FE7C301B20121
:101130000E947F1218161CF48BED91E00CC02FEF6B
:101140003FEF4FE75FE4C501B4010E94D7131816C3
:101150002CF48FED91E00E94B007B8C02FEF3FEF65
:101160004FE75FECC501B4010E947F1287FDF1CF0C
:1011700020E030E0A901C501B4010E947F1287FF81
:101180000BC06DE28AEA92E00E9458013C01B7FA76
:10119000B094B7F8B09402C0612C712C10E060E0FC
:1011A00070E080E09FE3F11641F020E030E040E2A3
:1011B00051E40E9484121F5FF6CFA50194010E94A2
:1011C00013124B015C010E94F6126AA3C72ED82E9F
:1011D000E92E19A2262F372F482F592F8E010F5D88
:1011E0001F4F0BA31CA39AE0292E312C412C512C0C
:1011F000CA01B901A20191010E94E315605DF801E5
:1012000062938F01211531054105510589F7CF0101
:101210000E94B0078301080F191FFF2009F455C071
:101220006AA17C2D8D2D9E2D0E9425139B01AC0162
:10123000C501B4010E9412124B015C016EE28AEA00
:1012400092E00E945801080F191F8AE0282E312CC5
:10125000412C512C20E030E040E251E4C501B401C2
:101260000E94DC134B015C010E94F6129B0140E0DE
:1012700050E019A2CBA0DCA0762E3AA3642EE52E76
:10128000CA01B901A20191010E94E315605DF60156
:1012900062936F01211531054105510589F7CF0191
:1012A0000E94B007080F191F672D7AA1862D9E2D69
:1012B0000E9425139B01AC01C501B4010E941212CA
:1012C0004B015C01FA94F110C5CFC801A4960FB68A
:1012D000F894DEBF0FBECDBFDF91CF911F910F916C
:1012E000FF90EF90DF90CF90BF90AF909F908F9046
:1012F0007F906F905F904F903F902F900895CF9385
:10130000DF93CDB7DEB7A3970FB6F894DEBF0FBE5D
:10131000CDBF789484B5826084BD84B5816084BD7E
:1013200085B5826085BD85B5816085BD80916E0083
:10133000816080936E0010928100809181008260B4
:1013400080938100809181008160809381008091F1
:1013500080008160809380008091B10084608093E0
:10136000B1008091B00081608093B00080917A00DC
:10137000846080937A0080917A00826080937A0002
:1013800080917A00816080937A0080917A008068F1
:1013900080937A001092C100E091BA02F091BB02F2
:1013A00082E08083E091B602F091B7021082E09172
:1013B000B802F091B9028FEC80831092C202E091E2
:1013C000BE02F091BF0286E08083E091BC02F09102
:1013D000BD02808180618083E091BC02F091BD02FA
:1013E000808188608083E091BC02F091BD028081A1
:1013F00080688083E091BC02F091BD0280818F7D86
:10140000808384E291E00E94C20710925A021092F7
:10141000590210925C0210925B020E94460283EC19
:1014200090E0909334028093330284EC90E09093A8
:101430003202809331020E94D00790E090933802EC
:10144000809337021A821982809137029091380274
:10145000892BD9F409811A8103301105B4F48DE286
:1014600091E00E94C2070F5F1F4F1A83098360ED4E
:1014700077E080E090E00E946F030E94D00790E048
:101480009093380280933702DFCF10928F0380E071
:1014900090EAA0E8B4E48093900390939103A09322
:1014A0009203B09393030E945A0790E09093360200
:1014B000809335021A82198280913502909136020A
:1014C000892B09F05BC509811A81033011050CF0E5
:1014D00055C580E591E00E94C2070F5F1F4F1A8338
:1014E000098360ED77E080E090E00E946F030E9446
:1014F0005A0790E09093360280933502DDCF86E75D
:101500000E9455068AE490E00E9455070E946906F1
:1015100064E170E080E090E00E946F0386E70E9443
:10152000550680E090E00E9455070E94690663E03E
:1015300070E086E790E00E945F0610927F031092B1
:101540008003109281031092820387E493E00E944B
:1015500074024C01990FAA08BB0880927F039092F5
:101560008003A0928103B092820387E493E00E94FB
:101570007402BA2CA92C982C88246C01990FEE08BF
:10158000FF08C828D928EA28FB28C0927F03D092F8
:101590008003E0928103F092820387E493E00E944B
:1015A0007402FE2CED2CDC2CCC24092E000CAA0B92
:1015B000BB0BC82AD92AEA2AFB2AC0927F03D09201
:1015C0008003E0928103F092820386E70E94550631
:1015D0008AE590E00E9455070E94690664E170E088
:1015E00080E090E00E946F0386E70E94550680E04D
:1015F00090E00E9455070E94690663E070E086E76C
:1016000090E00E945F061092830310928403109270
:1016100085031092860387E493E00E9474026C01B4
:10162000990FEE08FF08C0928303D0928403E092E2
:101630008503F092860387E493E00E947402FE2CF7
:10164000ED2CDC2CCC242C01990F660877084C2853
:101650005D286E287F284092830350928403609215
:1016600085037092860387E493E00E947402762CCF
:10167000652C542C4424092E000CAA0BBB0B482AC1
:10168000592A6A2A7B2A40928303509284036092EB
:101690008503709286038091790390917A03A0E08C
:1016A000B0E0BA2FA92F982F8827481A590A6A0A3A
:1016B0007B0A10918F0319A3E0917503F0917603D3
:1016C000E0907103F0907203FA82E98200917F0347
:1016D0001091800320918103309182030D8F1E8F22
:1016E0002F8F38A319A1113009F050C4970140E0A1
:1016F00050E060E070E080E090E000E10E94A3161E
:10170000F22E132F1A014B0189879983BF0180E0C4
:1017100090E0A30192010E946916D22EE32E042FBD
:10172000B52FF62FE72FB82EC92EA0E00E94F8168D
:101730005CF4AFE70E94E316D22EE32E042FB52F00
:10174000F62FE72FB82EC92E2D2D3E2D402F5B2FC3
:101750006F2F7E2F8B2D9C2D07E00E94BC16590108
:101760006A01E62EF72F082FE92F2F2D312FA10127
:10177000B40189859981FF2E1E2F0E94DA162D8BC8
:101780003E8B4F8B588F698F7A8F8B8F9C8FE09118
:101790007703F0917803209173033091740340E054
:1017A00050E060E070E080E090E001E10E94A3166C
:1017B000F22E132F1A014B0189879983BF0180E014
:1017C00090E0A30192010E946916D22EE32E042F0D
:1017D000B52FF62FE72FB82EC92EA0E00E94F816DD
:1017E0005CF4AFE30E94E316D22EE32E042FB52F54
:1017F000F62FE72FB82EC92E2D2D3E2D402F5B2F13
:101800006F2F7E2F8B2D9C2D06E00E94BC16590158
:101810006A01E62EF72F082FE92F2F2D312FA10176
:10182000B40189859981FF2E1E2F0E94DA162AA302
:101830003BA3342E252E698B7A8B8B8B9C8BED8C66
:10184000FE8C0F8D18A1A801970160E070E0CB011C
:1018500029833A834B835C836D837E838F83988750
:1018600093018201330F000B102F980109831A8313
:101870002B833C8360917B0370917C0380E090E03C
:10188000A30192010E946916F22E032F142FB52F87
:10189000F62FE72FD82EE92EA0E00E94F81684F448
:1018A0002150310940485F4F6F4F7F4F8F4F9F4FFF
:1018B000F22E032F142FB52FF62FE72FD82EE92E57
:1018C0002F2D302F412F5B2F6F2F7E2F8D2D9E2D93
:1018D00007E10E94BC1649015A01A5019401205359
:1018E000384F4F4F5F4F2D873E874F87588B39A119
:1018F000313009F0DEC34D855E856F857889403DC6
:101900005740610571050CF094C4C301B2012BE08E
:1019100030E040E050E00E94691652016301E98026
:10192000FE2C0E2D1E2D0E941016F22E032F142FAA
:10193000B52FF62FE72FD82EE92EA0E00E94F8163B
:1019400084F42150310941095109684F7F4F8F4F6D
:101950009F4FF22E032F142FB52FF62FE72FD82EDF
:10196000E92E2F2D302F412F5B2F6F2F7E2F8D2DA6
:101970009E2D03E20E94BC1629833A834B835C832D
:10198000AFE1B0E08D849E84AF84B88890ED891A71
:1019900097E0990AA108B108A50194010E940516D3
:1019A0009B01AC01C501B4010E94D3157B018C01E0
:1019B00023E015950795F794E7942A95D1F7AFE3BF
:1019C000B0E0A50194010E9405169B01AC01C50180
:1019D000B4010E94D3152B013C0135E07594679446
:1019E000579447943A95D1F7B801A701770F440B64
:1019F000542FBA0149875A876B877C872AA13BA15C
:101A0000432D522D69897A898B899C8957016801F8
:101A1000E984FE2C0E2D1E2D0E94EF16298B3A8B89
:101A20004B8B5C8B4B011C01C301B201990F660B00
:101A3000762FCB0169877A878B879C872D893E8992
:101A40004F89588D698D7A8D8B8D9C8D52016301E4
:101A5000E984FE2C0E2D1E2D0E94EF1659016A01FD
:101A60007B018C018D859E85AF85B88929813A815E
:101A70004B815C81821B930BA40BB50B8093870376
:101A800090938803A0938903B0938A0339A13130DE
:101A900009F0DAC36D8D7E8D8F8D98A1AB01BC01ED
:101AA00080E090E0DC0149835A836B837C838D83E3
:101AB0009E83AF83B8879A01AB0160E070E080E05D
:101AC00090E00E941016F22E032F142FB52FF62F40
:101AD000E72FD82EE92EA0E00E94F81684F42150BA
:101AE0003109404E5F4F6F4F7F4F8F4F9F4FF22E08
:101AF000032F142FB52FF62FE72FD82EE92E2F2DD9
:101B0000302F412F5B2F6F2F7E2F8D2D9E2D05E1C6
:101B10000E94BC16A988BA88CB88DC887401810130
:101B20000E94EF16122F39874983B52FF62FE72F22
:101B3000F82E092FA0E00E94F81684F421503048B6
:101B40004F4F5F4F6F4F7F4F8F4F9F4F122F3987F0
:101B50004983B52FF62FE72FF82E092F212F39852E
:101B600049815B2F6F2F7E2F8F2D902F0FE00E94CA
:101B7000BC1620938B0330938C0340938D035093BA
:101B80008E0383E791E00E94B00780918F0381303C
:101B900009F0C6C360918B0370918C0380918D0313
:101BA00090918E030E94271320E030E048EC52E42D
:101BB0000E94841242E00E945E0886E791E00E9443
:101BC000B007609187037091880380918903909199
:101BD0008A030E94271320E030E048EC52E40E9480
:101BE000841242E00E945E088CE791E00E94B007F8
:101BF00080918F03813009F0A2C360918B037091B3
:101C00008C0380918D0390918E030E94271320E016
:101C100030E048EC52E40E94DC1320E030E048EC75
:101C200052E40E94841220E03AED45EC57E40E9411
:101C300012126B017C012AE038EE4CE151E4609114
:101C400090037091910380919203909193030E946D
:101C5000DC139B01AC01C701B6010E94841242E073
:101C60000E945E0885E891E00E94B00780918F0392
:101C7000813009F079C360918B0370918C0380915E
:101C80008D0390918E030E94271320E030E048ECF2
:101C900052E40E94841220E030E54DE754E40E94B3
:101CA00084122FEC39ED42E45EE30E9449149B015B
:101CB000AC0160E070E080E89FE30E9412122DE921
:101CC00035EF4DE058E40E94DC132FEB3EE04CE989
:101CD0005EE30E94DC1342E00E945E0881EC91E02A
:101CE0000E94B0078091350290913602892B09F449
:101CF0004FC387E70E94550688E490E00E9455078D
:101D00000E9469066AE070E080E090E00E946F0344
:101D100087E70E94550680E090E00E9455070E94E8
:101D2000690663E070E087E790E00E945F0610922A
:101D3000630310926403109265031092660387E4B4
:101D400093E00E9474024C01990FAA08BB0880928C
:101D5000630390926403A0926503B092660387E4E4
:101D600093E00E947402BA2CA92C982C88246C0150
:101D7000990FEE08FF08C828D928EA28FB28C09246
:101D80006303D0926403E0926503F092660387E4F4
:101D900093E00E947402FE2CED2CDC2CCC24AC01D0
:101DA000990F660B770BD701C601842B952BA62BB9
:101DB000B72B8093630390936403A0936503B09360
:101DC0006603692F7A2F8B2F992760936B0370938B
:101DD0006C0380936D0390936E030E9425136B0137
:101DE0007C0120E030E040E850E40E9449144B01BF
:101DF0005C0120E030E040E450E4C701B6010E94FD
:101E000049142B013C01609155037091560380E009
:101E100090E00E94251320E030E040E050EC0E946A
:101E2000DC1327E237ED48E552E60E948412A50153
:101E300094010E94DC134B015C0160915703709187
:101E4000580380E090E00E94251320E030E040E855
:101E500050E40E94DC132AEC3BE14EE05AE50E947C
:101E60008412A30192010E94DC139B01AC01C50105
:101E7000B4010E9413124B015C01609159037091EF
:101E80005A0380E090E00E94251320E030E040E01B
:101E900050EC0E94DC1327EB33E44AEB51E50E943F
:101EA00084122B013C01A7019601C701B6010E94D3
:101EB000DC139B01AC01C301B2010E94DC139B0146
:101EC000AC01C501B4010E9413124B015C01609189
:101ED0005B0370915C0380E090E00E94251320E09A
:101EE00034E244E759E40E948412A70196010E945B
:101EF000DC139B01AC01C501B4010E9413126B01FC
:101F00007C0160915D0370915E0380E090E00E942F
:101F1000251320E030E040EC5FEB0E94DC1320E072
:101F200030E048EC52E40E9484129B01AC01C701EE
:101F3000B6010E9413126093670370936803809345
:101F4000690390936A0384EC91E00E94B00760916A
:101F50006703709168038091690390916A0342E07E
:101F60000E945E0888EC91E00E94B00768EE73E082
:101F700080E090E00E946F030E94C70180913702C9
:101F800090913802892B09F4FEC1B9CABF0180E0E3
:101F900090E0A30192010E946916F22E032F142FE4
:101FA000B52FF62FE72FD82EE92EA0E00E94F816C5
:101FB00084F421503F4F4F4F5F4F6F4F7F4F8F4FF4
:101FC0009F4FF22E032F142FB52FF62FE72FD82E69
:101FD000E92E2F2D302F412F5B2F6F2F7E2F8D2D30
:101FE0009E2D08E00E94BC1619014A01B62FA72FAA
:101FF000F82FE92F29813A81C12CD12CA60160E06C
:1020000070E080E090E00FE00E94A31659016A01A1
:102010007B018C019101A4016B2F7A2F8F2F9E2FB2
:102020000E94DA162D8B3E8B4F8B588F698F7A8FDB
:102030008B8F9C8FE0917703F0917803209173034D
:102040003091740340E050E060E070E080E090E0A8
:1020500000E10E94A316F22E132F1A014B0189876B
:102060009983BF0180E090E0A30192010E9469166C
:10207000D22EE32E042FB52FF62FE72FB82EC92E20
:10208000A0E00E94F8165CF4AFE70E94E316D22E9F
:10209000E32E042FB52FF62FE72FB82EC92E2D2DA6
:1020A0003E2D402F5B2F6F2F7E2F8B2D9C2D07E019
:1020B000ACCB0D851E852F853889003D1740210545
:1020C00031050CF0A2C0C301B20123E030E040E0D2
:1020D00050E00E94691652016301E980FE2C0E2D2A
:1020E0001E2D0E941016F22E032F142FB52FF62F3F
:1020F000E72FD82EE92EA0E00E94F81684F4215094
:102100003109410951096E4F7F4F8F4F9F4FF22E7A
:10211000032F142FB52FF62FE72FD82EE92E2F2DB2
:10212000302F412F5B2F6F2F7E2F8D2D9E2D01E2A3
:102130000E94BC1629833A834B835C83A3E0B0E002
:102140008D849E84AF84B88850ED851A57E0950A37
:10215000A108B108A50194010E9405169B01AC01DC
:10216000C501B4010E94D3157B018C01159507951B
:10217000F794E794A5E0B0E0A50194010E9405164C
:102180009B01AC01C501B4010E94D3152B013C0198
:1021900093E075946794579447949A95D1F76D8519
:1021A0007E858F859889613CA9EF7A07AFEF8A0712
:1021B0009A070CF019CCA7E0B0E04B015C012CEDC4
:1021C000820E25E0921EA11CB11CA50194010E9463
:1021D00005169B01AC01C501B4010E94D315E60EA2
:1021E000F71E081F191FA5019401B2E0220F331F2B
:1021F000441F551FBA95D1F7C501B4010E94D315EC
:10220000460E571E681E791EEFCBA5019401C5012D
:10221000B4010E94D3157B018C01A4E015950795AC
:10222000F794E794AA95D1F719821A821B821C822F
:1022300007C019821A821B821C82E12CF12C8701B3
:10224000412C512C3201D0CB4D8D5E8D6F8D78A1FC
:102250009A01AB0160E070E0CB0129833A834B83A4
:102260005C836D837E838F83988760E070E080E07D
:1022700090E00E941016F22E032F142FB52FF62F88
:10228000E72FD82EE92EA0E00E94F81684F4215002
:102290003109404E5F4F6F4F7F4F8F4F9F4FF22E50
:1022A000032F142FB52FF62FE72FD82EE92E2F2D21
:1022B000302F412F5B2F6F2F7E2F8D2D9E2D05E10F
:1022C0000E94BC16A988BA88CB88DC887401810179
:1022D0000E94EF16122F39874983B52FF62FE72F6B
:1022E000F82E092FA0E00E94F81684F42150304EF9
:1022F0004F4F5F4F6F4F7F4F8F4F9F4F122F398739
:102300004983B52FF62FE72FF82E092F212F398576
:1023100049815B2F6F2F7E2F8F2D902F0DE027CCC3
:1023200060918B0370918C0380918D0390918E034B
:102330000E94271320E030E040E251E439CC609164
:102340008B0370918C0380918D0390918E030E947A
:10235000271320E030E048EC52E40E94DC1320E038
:1023600030E040E251E45DCC60918B0370918C03CE
:1023700080918D0390918E030E94271320E030E01E
:1023800040E251E486CC8CE891E00E94C207AACCDE
:102390008BEC91E00E94C207E9CDEAEAF2E01382F9
:1023A000128288EE93E0A0E0B0E084839583A68358
:1023B000B78324E031E03183208325EC30E035879A
:1023C000248724EC30E03787268720EC30E0318BFF
:1023D000208B21EC30E0338B228B22EC30E0358BEC
:1023E000248B26EC30E0378B268B118E128E138EC9
:1023F000148EE7E4F3E01382128284839583A6832C
:10240000B78386E191E09183808380E090EAA0E841
:10241000B4E48093900390939103A0939203B093BC
:10242000930308955058BB27AA270E942A120C94A0
:102430009D130E948F1338F00E94961320F039F4F8
:102440009F3F19F426F40C948C130EF4E095E7FBEF
:102450000C948613E92F0E94AE1358F3BA17620743
:1024600073078407950720F079F4A6F50C94D01330
:102470000EF4E0950B2EBA2FA02D0B01B90190019F
:102480000C01CA01A0011124FF27591B99F0593FE3
:1024900050F4503E68F11A16F040A22F232F342F2B
:1024A0004427585FF3CF469537952795A795F04079
:1024B0005395C9F77EF41F16BA0B620B730B840B8E
:1024C000BAF09150A1F0FF0FBB1F661F771F881F46
:1024D000C2F70EC0BA0F621F731F841F48F487959E
:1024E00077956795B795F7959E3F08F0B0CF939590
:1024F000880F08F09927EE0F9795879508950E9409
:10250000621308F481E008950E9498120C949D13C0
:102510000E94961358F00E948F1340F029F45F3FF9
:1025200029F00C94861351110C94D1130C948C1334
:102530000E94AE1368F39923B1F3552391F3951BD1
:10254000550BBB27AA2762177307840738F09F5FD4
:102550005F4F220F331F441FAA1FA9F335D00E2E41
:102560003AF0E0E832D091505040E695001CCAF7AE
:102570002BD0FE2F29D0660F771F881FBB1F261771
:1025800037074807AB07B0E809F0BB0B802DBF0148
:10259000FF2793585F4F3AF09E3F510578F00C9417
:1025A00086130C94D1135F3FE4F3983ED4F38695E1
:1025B00077956795B795F7959F5FC9F7880F911D38
:1025C0009695879597F90895E1E0660F771F881F24
:1025D000BB1F621773078407BA0720F0621B730BD7
:1025E000840BBA0BEE1F88F7E09508950E94B6138E
:1025F00088F09F5798F0B92F9927B751B0F0E1F0C4
:10260000660F771F881F991F1AF0BA95C9F714C073
:10261000B13091F00E94D013B1E008950C94D01322
:10262000672F782F8827B85F39F0B93FCCF38695AC
:1026300077956795B395D9F73EF490958095709509
:1026400061957F4F8F4F9F4F0895E89409C097FB86
:102650003EF490958095709561957F4F8F4F9F4F79
:102660009923A9F0F92F96E9BB279395F6958795BD
:1026700077956795B795F111F8CFFAF4BB0F11F480
:1026800060FF1BC06F5F7F4F8F4F9F4F16C0882327
:1026900011F096E911C0772321F09EE8872F762F5D
:1026A00005C0662371F096E8862F70E060E02AF09E
:1026B0009A95660F771F881FDAF7880F969587958A
:1026C00097F90895990F0008550FAA0BE0E8FEEF5F
:1026D00016161706E807F907C0F012161306E407E6
:1026E000F50798F0621B730B840B950B39F40A26DF
:1026F00061F0232B242B252B21F408950A2609F4BD
:10270000A140A6958FEF811D811D089597F99F67C0
:1027100080E870E060E008959FEF80EC0895002469
:102720000A941616170618060906089500240A9436
:1027300012161306140605060895092E0394000CBC
:1027400011F4882352F0BB0F40F4BF2B11F460FF4B
:1027500004C06F5F7F4F8F4F9F4F089557FD905874
:10276000440F551F59F05F3F71F04795880F97FB55
:10277000991F61F09F3F79F087950895121613060F
:102780001406551FF2CF4695F1DF08C0161617063E
:102790001806991FF1CF8695710561050894089573
:1027A000E894BB2766277727CB0197F908950E9405
:1027B000621308F48FEF08950E94EF130C949D1399
:1027C0000E948F1338F00E94961320F0952311F089
:1027D0000C9486130C948C1311240C94D1130E9426
:1027E000AE1370F3959FC1F3950F50E0551F629F94
:1027F000F001729FBB27F00DB11D639FAA27F00D5A
:10280000B11DAA1F649F6627B00DA11D661F829F80
:102810002227B00DA11D621F739FB00DA11D621F65
:10282000839FA00D611D221F749F3327A00D611D82
:10283000231F849F600D211D822F762F6A2F112464
:102840009F5750409AF0F1F088234AF0EE0FFF1F97
:10285000BB1F661F771F881F91505040A9F79E3FEE
:10286000510580F00C9486130C94D1135F3FE4F370
:10287000983ED4F3869577956795B795F795E79544
:102880009F5FC1F7FE2B880F911D9695879597F94D
:102890000895FA01EE0FFF1F309621053105A1F1D1
:1028A0006115710561F48038BFE39B0749F16894B5
:1028B0009038810561F08038BFEF9B0741F0992384
:1028C0004AF5FF3FE1053105210519F1E894089427
:1028D000E795D901AA2329F4AB2FBE2FF85FD0F3D7
:1028E00010C0FF5F70F4A695E0F7F73950F019F0CB
:1028F000FF3A38F49F779F930DD00F9007FC9058C4
:10290000089546F00C948C1360E070E080E89FE33B
:1029100008954FE79F775F934F933F932F930E94C4
:1029200049152F913F914F915F910E94DC130C94B8
:10293000A6140E946213880B990B089529F416F0CF
:102940000C9486130C94D0130C948C130E94B61321
:10295000A8F39638A0F707F80F92E8942BE33AEA29
:1029600048EB5FE70E94F2130F920F920F924DB760
:102970005EB70F920E949115E8E6F0E00E94D8142D
:102980004F915F91EF91FF91E595EE1FFF1F49F089
:10299000FE57E0684427EE0F441FFA95E1F7419592
:1029A000550B0E940B150F9007FE0C94FF14089511
:1029B000DF93CF931F930F93FF92EF92DF927B01F0
:1029C0008C01689406C0DA2EEF010E94EF13FE011D
:1029D000E894A5912591359145915591A6F3EF0184
:1029E0000E942A12FE019701A801DA9469F7DF908C
:1029F000EF90FF900F911F91CF91DF9108959B0170
:102A0000AC0160E070E080E89FE30C9484120C94C9
:102A100086130C94C5150E94B613D8F39923C9F3F5
:102A2000940F511DA3F39150504094F059F0882316
:102A300032F0660F771F881F91505040C1F79E3FBC
:102A400051052CF7880F911D9695879597F9089554
:102A50005F3FACF0983E9CF0BB27869577956795D5
:102A6000B79508F4B1609395C1F7BB0F58F711F40F
:102A700060FFE8CF6F5F7F4F8F4F9F4FE3CF0C9486
:102A8000D11316F00C94C5150C948C1368940C9407
:102A900086130E94B613A8F39923C1F3AEF3DF9314
:102AA000CF931F930F93FF92C92FDD2788232AF01E
:102AB0002197660F771F881FDAF720E030E040E8A3
:102AC0005FEB9FE3883920F0803E38F021968F77C6
:102AD0000E941312E0E9F0E004C00E941312EDEB33
:102AE000F0E00E94D8148B01BE01EC01FB2E6F5761
:102AF00071097595771F880B990B0E94271328E1A0
:102B000032E741E35FE30E94EF13AF2D9801AE017E
:102B1000FF900F911F91CF91DF910E942A120C9488
:102B20009D13FA01DC01AA0FBB1F9B01AC01BF572B
:102B300028F4222733274427507820C0B75190F437
:102B4000AB2F0024469537952795011CA395D2F30A
:102B5000002071F0220F331F441FB395DAF30ED01B
:102B60000C94121261307105A0E88A07B94630F45E
:102B70009B01AC016627772788279078309621F053
:102B8000208331834283538308959F3F31F09150D6
:102B900020F4879577956795B795880F911D969541
:102BA000879597F90895DB018F939F930E940516EF
:102BB000BF91AF91A29F800D911DA39F900DB29FD9
:102BC000900D11240895A1E21A2EAA1BBB1BFD0132
:102BD0000DC0AA1FBB1FEE1FFF1FA217B307E407FC
:102BE000F50720F0A21BB30BE40BF50B661F771F54
:102BF000881F991F1A9469F7609570958095909534
:102C00009B01AC01BD01CF0108950E940A17A59F49
:102C1000900DB49F900DA49F800D911D11240895D7
:102C2000DF93CF931F930F939A9DF02D219FF00D6B
:102C30008B9DF00D8A9DE02DF10D039FF00D029FFD
:102C4000E00DF11D4E9DE00DF11D5E9DF00D4F9DBF
:102C5000F00D7F936F93BF92AF925F934F93D50127
:102C60000E940A178B01AC01D7010E940A17EB01E1
:102C7000E80FF91FD6010E9460162F913F91D601EF
:102C80000E940A17C60FD71FE81FF91FAF91BF9107
:102C90000E9460162F913F910E940A17C60FD71FFE
:102CA000E81FF91FD6010E940A17E60FF71F9801C7
:102CB000BE01CF0111240F911F91CF91DF91089593
:102CC0000E940A17460F571FC81FD91F08F43196D4
:102CD000089597FB57FF0C9479169F938F930E944A
:102CE00079166E1B7F0BAF91BF918A0B9B0B0895DA
:102CF000E894DF93CF93FC01DB010E940A177F93D6
:102D00006F93E9019A01AC01BF93AF933F932F9367
:102D1000DF010E940A1726F46C1B7D0B820B930BBC
:102D20009E01EB01FC010E946016AF91BF912F91B3
:102D30003F910E946016BE01CF01F9012F913F9192
:102D4000CF91DF9108950F93083090F0982F872F3F
:102D5000762F652F542F432F322F22270850F4CF80
:102D6000220F331F441F551F661F771F881F991F8F
:102D70000A95B2F70F91089597FB10F81694000882
:102D80000F93083098F00850232F342F452F562FDB
:102D9000672F782F892F902DF4CF059497958795DD
:102DA0007795679557954795379527950A95AAF78B
:102DB0000F9108952A0D3B1D4C1D5D1D6E1D7F1D3D
:102DC000801F911F08950024A7FD00942A0F301D35
:102DD000401D501D601D701D801D901D08952A19F5
:102DE0003B094C095D096E097F09800B910B089521
:102DF0000024A7FD00942A17300540055005600502
:102E00007005800590050895EE0FFF1F0590F49161
:102E1000E02D0994A29FB001B39FC001A39F700D44
:102E2000811D1124911DB29F700D811D1124911DD2
:102E3000089581E090E0F8940C941E17F894FFCF69
:102E4000000000005801C500EF00A5012001FE00B0
:102E5000120100000000BD029002ED02640288022F
:102E6000740265025374617274696E67004D533564
:102E700038333720496E6974206661696C65642C4B
:102E800020726574727920696E2032207365630048
:102E900054535953303120496E6974206661696C0E
:102EA00065642C20726574727920696E20322073FB
:102EB000656300503A002C2054313A002C204465C0
:102EC0007074683A002C20416C743A00503A2D39E5
:102ED0003939392E39392C2054313A2D393939398B
:102EE0002E39392C2044657074683A2D39393939B6
:102EF0002E39392C20416C743A2D393939392E3913
:102F0000392C200054323A000D0A0054323A2D393F
:102F10003939392E3939006E616E00696E66006F7D
:042F200076660000D1
:107E0000112484B714BE81FFFDD085E080938100EA
:107E100082E08093C00088E18093C10096E0909357
:107E2000C20090E19093C400809360008EE0809344
:107E30006000259A86E020E33CEF91E030938500D6
:107E40002093840096BBB09BFECF1D9AA8958150CD
:107E5000A9F7C0E0D0E008E138E0F32EEE24E39487
:107E600045E0B42E51E1A52E13E0A7D0813491F462
:107E7000A4D0D82EAED082E8D81203C084E096D029
:107E800092C0E1E8DE1203C084E090D08CC083E0B1
:107E90008DD089C0823419F484E1A7D084C08534A0
:107EA00019F485E0A2D07FC0853549F486D0C82F6B
:107EB00084D0D0E0D82BCC0FDD1F8BD074C086359A
:107EC00029F484E092D080E071D06DC0843609F04E
:107ED0003FC073D072D0982E70D0C115F0E7DF0785
:107EE00038F4FE0117BFE895C12CDD24D39403C0FC
:107EF000C12CDD24D39461D0F60181936F019E12D1
:107F0000FACFC115F0E7DF0718F0FE0117BFE895BB
:107F100060D007B600FCFDCFFE01A0E0B1E08C917F
:107F200011962C91119790E0922B0C01E7BEE895E9
:107F3000112432961296A03881E0B80781F7FE012D
:107F4000B7BEE89507B600FCFDCFA7BEE8952BC0ED
:107F50008437B1F432D031D0982E2FD03AD0892C3A
:107F6000FE016F018FEFC81AD80A84911FD08A943E
:107F7000F6018110F6CF21969A94C90DD11D13C038
:107F8000853741F426D08EE111D085E90FD08FE0FE
:107F90000DD009C0813531F400936000F09260008B
:107FA00018D001C016D080E101D05FCF9091C00001
:107FB00095FFFCCF8093C60008958091C00087FF95
:107FC000FCCF8091C00084FD01C0A8958091C600BF
:107FD0000895F3DF803239F088E18093600088E013
:107FE00080936000FFCF84E1E1CFCF93C82FE5DF1E
:107FF000C150E9F7CF91EDCFE0E6F0E098E1908352
:1080000080830895E0E6F0E088E180831082EE2727
:04801000FF270994A9
:027FFE00040479
:0400000300007E007B
:00000001FF
