:100000000C9499000C94C1000C94C1000C94C10094
:100010000C94C1000C94C1000C94C1000C94C1005C
:100020000C94C1000C94C1000C94C1000C94C1004C
:100030000C94C1000C94C1000C94C1000C94C1003C
:100040000C94CA040C94C1000C9439040C9413044D
:100050000C94C1000C94C1000C94C1000C94C1001C
:100060000C946D050C94C10007634236B79BD8A76A
:100070001A39685618AEBAAB558C1D3CB7CC5763CD
:10008000BD6DEDFD753EF6177231BF000000803F7B
:1000900008000000BE922449123EABAAAA2ABECD97
:1000A000CCCC4C3E00000080BEABAAAAAA3E000009
:1000B0000000BF000000803F000000000008417801
:1000C000D3BB4387D1133D190E3CC3BD4282AD2B38
:1000D0003E68EC8276BED98FE1A93E4C80EFFFBE30
:1000E00001C4FF7F3F000000000000000000250069
:1000F00028002B0004040404040404040202020285
:1001000002020303030303030102040810204080DA
:100110000102040810200102040810200000000859
:1001200000020100000304070000000000000000BE
:10013000691211241FBECFEFD8E0DEBFCDBF11E0A2
:10014000A0E0B1E0E8E7FFE202C005900D92A43D17
:10015000B107D9F723E0A4EDB1E001C01D92A939A0
:10016000B207E1F710E0C9E9D0E004C02197FE0131
:100170000E94A017C839D107C9F70E947F090C94C3
:10018000BA170C94000008950895CF92DF92EF9271
:10019000FF920F931F93CF93DF936C017A018B0132
:1001A000C0E0D0E0CE15DF0581F0D8016D918D0162
:1001B000D601ED91FC910190F081E02DC6010995E9
:1001C000892B11F02196EECF7E01C701DF91CF91EF
:1001D0001F910F91FF90EF90DF90CF900895FC0159
:1001E000538D448D252F30E0842F90E0821B930B9C
:1001F000541710F0CF96089501970895FC01918D42
:10020000828D981761F0828DDF01A80FB11D5D9678
:100210008C91928D9F5F9F73928F90E008958FEFE6
:100220009FEF0895FC01918D828D981731F0828D9A
:10023000E80FF11D858D90E008958FEF9FEF0895F1
:10024000FC01918D228D892F90E0805C9F4F821B55
:1002500091098F73992708958EEA92E00E942001F8
:1002600021E0892B09F420E0822F0895FC01848D80
:10027000DF01A80FB11DA35ABF4F2C91848D90E0D0
:1002800001968F739927848FA689B7892C93A089AB
:10029000B1898C91837080648C93938D848D981335
:1002A00006C00288F389E02D80818F7D80830895C8
:1002B000EF92FF920F931F93CF93DF93EC0181E0B6
:1002C000888F9B8D8C8D981305C0E889F989808172
:1002D00085FD26C0F62E0B8D10E00F5F1F4F0F73AC
:1002E0001127E02E8C8DE8120CC00FB607FCFACF58
:1002F000E889F989808185FFF5CFCE010E9436011A
:10030000F1CF8B8DFE01E80FF11DE35AFF4FF08214
:100310009FB7F8940B8FEA89FB89808180620AC0BD
:100320009FB7F894EE89FF896083E889F989808115
:100330008370806480839FBF81E090E0DF91CF91E4
:100340001F910F91FF90EF900895CF93DF93EC01F1
:10035000888D8823C9F0EA89FB89808185FD05C0E5
:10036000A889B9898C9186FD0FC00FB607FCF5CF1F
:10037000808185FFF2CFA889B9898C9185FFEDCF67
:10038000CE010E943601E7CFDF91CF91089580E042
:1003900090E0892B29F00E942C0181110C9400001F
:1003A000089590E0FC01E45EFE4F2491FC01E85FBB
:1003B000FE4F3491FC01EC50FF4FE491EE2309F421
:1003C0003CC0222339F1233091F038F42130A9F0D8
:1003D000223001F584B58F7D12C0273091F028308E
:1003E000A1F02430B9F4809180008F7D03C080910A
:1003F00080008F77809380000DC084B58F7784BD97
:1004000009C08091B0008F7703C08091B0008F7DCC
:100410008093B000F0E0EE0FFF1FE651FF4FA59173
:10042000B4919FB7F894611104C08C913095382332
:1004300002C0EC913E2B3C939FBF08954091F50183
:10044000262F30E0240F311D21323105DCF42091BC
:10045000A8022430C9F4FC0180E090E0861758F42B
:100460003091F5012191DC01AB52BE4FA30FB11DBC
:100470002C930196F3CF8091F501680F6093F501FD
:1004800080E0089581E0089582E008951092A80226
:1004900081E0809387021092820261E082E10E94F3
:1004A000D10161E083E10E94D101E9EBF0E08081BC
:1004B0008E7F808380818D7F808388E48093B800E5
:1004C00085E48093BC0008950895E0915E028091D8
:1004D0005D02E81730F4F0E0E857FD4F808190E0CE
:1004E00008958FEF9FEF089590915E0280915D02D5
:1004F000981750F4E92FF0E0E857FD4F208130E0E5
:100500009F5F90935E0202C02FEF3FEFC9010895F5
:1005100080915D0290E020915E02821B9109089516
:10052000CF92DF92EF92FF920F931F93CF93DF93BF
:100530007C01CB018A0120916102222389F0EB0129
:100540006B01C40ED51ECC15DD0569F06991D7018C
:10055000ED91FC910190F081E02DC7010995F3CF59
:10056000642F0E941E02C801DF91CF911F910F914D
:10057000FF90EF90DF90CF900895CF93DF931F927D
:10058000CDB7DEB76983209161022223D1F020919B
:100590005F02203240F021E030E0FC01338322830F
:1005A00080E090E015C080916002E82FF0E0E35C0D
:1005B000FD4F998190838F5F8093600280935F02EB
:1005C00005C061E0CE0101960E941E0281E090E02C
:1005D0000F90DF91CF910895089580E090E0089505
:1005E0002F923F924F925F926F927F928F929F9243
:1005F000AF92BF92CF92DF92EF92FF920F931F9331
:10060000CF93DF93CDB7DEB7A4970FB6F894DEBFD4
:100610000FBECDBF4B015C01F42E9B01AC010E94CB
:100620003515882319F084E291E027C024013501B3
:10063000E89477F82FEF3FEF4FE75FE7C301B20190
:100640000E94351581110DC02FEF3FEF4FE75FE797
:10065000C301B2010E941B1318161CF488E291E03A
:100660000CC02FEF3FEF4FE75FE4C501B4010E94DC
:10067000731418162CF48CE291E00E947607B8C02F
:100680002FEF3FEF4FE75FECC501B4010E941B1352
:1006900087FDF1CF20E030E0A901C501B4010E943F
:1006A0001B1387FF0BC06DE28EEA92E00E94580197
:1006B0003C01B7FAB094B7F8B09402C0612C712C29
:1006C00010E060E070E080E09FE3F11641F020E090
:1006D00030E040E251E40E9420131F5FF6CFA501F5
:1006E00094010E94AF124B015C010E9492136AA315
:1006F000C72ED82EE92E19A2262F372F482F592F73
:100700008E010F5D1F4F0BA31CA39AE0292E312CE5
:10071000412C512CCA01B901A20191010E947F16FE
:10072000605DF80162938F01211531054105510586
:1007300089F7CF010E9476078301080F191FFF2058
:1007400009F455C06AA17C2D8D2D9E2D0E94C113E8
:100750009B01AC01C501B4010E94AE124B015C01CA
:100760006EE28EEA92E00E945801080F191F8AE09B
:10077000282E312C412C512C20E030E040E251E475
:10078000C501B4010E9478144B015C010E949213D0
:100790009B0140E050E019A2CBA0DCA0762E3AA34A
:1007A000642EE52ECA01B901A20191010E947F16B3
:1007B000605DF60162936F01211531054105510518
:1007C00089F7CF010E947607080F191F672D7AA1BC
:1007D000862D9E2D0E94C1139B01AC01C501B40161
:1007E0000E94AE124B015C01FA94F110C5CFC80112
:1007F000A4960FB6F894DEBF0FBECDBFDF91CF91A8
:100800001F910F91FF90EF90DF90CF90BF90AF902E
:100810009F908F907F906F905F904F903F902F9020
:1008200008950E94B5171F920F920FB60F921124D0
:100830002F933F934F935F936F937F938F939F93E8
:10084000AF93BF93EF93FF938EEA92E00E9436013D
:10085000FF91EF91BF91AF919F918F917F916F9198
:100860005F914F913F912F910F900FBE0F901F906E
:1008700018951F920F920FB60F9211242F938F93FA
:100880009F93EF93FF93E091BE02F091BF028081AE
:10089000E091C402F091C50282FD12C09081809166
:1008A000C7028F5F8F732091C802821751F0E091C9
:1008B000C702F0E0E255FD4F958F8093C70201C05B
:1008C0008081FF91EF919F918F912F910F900FBE9B
:1008D0000F901F9018953FB7F89480911D0290914A
:1008E0001E02A0911F02B091200226B5A89B05C050
:1008F0002F3F19F00196A11DB11D3FBFBA2FA92F9F
:10090000982F8827820F911DA11DB11DBC01CD011B
:1009100042E0660F771F881F991F4A95D1F7089507
:100920008F929F92AF92BF92CF92DF92EF92FF92FF
:100930006B017C010E946B044B015C01C114D1046A
:10094000E104F104F1F00E946B04DC01CB01881991
:100950009909AA09BB09883E9340A105B10570F326
:1009600021E0C21AD108E108F10888EE880E83E080
:10097000981EA11CB11CC114D104E104F10419F7A3
:10098000DDCFFF90EF90DF90CF90BF90AF909F9022
:100990008F9008951F920F920FB60F9211242F93EC
:1009A0003F938F939F93AF93BF9380911902909140
:1009B0001A02A0911B02B0911C023091180223E090
:1009C000230F2D3720F40196A11DB11D05C026E887
:1009D000230F0296A11DB11D2093180280931902C6
:1009E00090931A02A0931B02B0931C0280911D02E7
:1009F00090911E02A0911F02B09120020196A11DAC
:100A0000B11D80931D0290931E02A0931F02B0930C
:100A10002002BF91AF919F918F913F912F910F90A5
:100A20000FBE0F901F901895CF93DF9391E0909396
:100A3000D4018823B9F0C091B800D091BA00809158
:100A4000BC008A7B8093BC0060E082E10E94D101FF
:100A500060E083E10E94D1010E944602D093BA0077
:100A6000C093B800DF91CF91089585ED8093BC00CD
:100A70008091AA029091AB02A091AC02B091AD021C
:100A80000796A11DB11D23E0B695A795979587956B
:100A90002A95D1F72091BC0024FF1CC04091AA02E6
:100AA0005091AB026091AC027091AD02452B462B88
:100AB000472B81F30097A105B10541F02AE22A9561
:100AC000F1F700C00197A109B109E4CF8091A90213
:100AD0000C9414051092A80208951F920F920FB65D
:100AE0000F9211242F933F934F935F936F937F93B4
:100AF0008F939F93AF93BF93EF93FF938091B90030
:100B0000887F803609F49CC068F5883209F45BC0A0
:100B100090F4803109F454C038F4882309F4F6C005
:100B2000883009F44DC0F6C0883109F44CC08032D9
:100B300009F45DC0EFC0803409F468C048F4803324
:100B400009F455C0883309F0E5C080938602D8C007
:100B5000803509F44FC0883509F45DC0883409F048
:100B6000D9C0D6C0883909F4C7C0A8F4883709F4B9
:100B700067C038F4883609F463C0803709F460C070
:100B8000C9C0883809F4B8C0803909F45FC080381A
:100B900009F0C0C05BC0803B09F486C038F4803ADD
:100BA00009F466C0883A09F47FC0B4C0803C09F4F7
:100BB000A7C0883C09F4A4C0883B09F48AC0AAC035
:100BC0008091830210C090918502809184029817D1
:100BD00070F5E091850281E08E0F80938502F0E050
:100BE000EE59FD4F80818093BB0085EC86C08093D9
:100BF00086028EC0E091850281E08E0F809385028F
:100C00008091BB00F0E0EE59FD4F8083909185020A
:100C1000809184026EC0E091850281E08E0F809306
:100C200085028091BB00F0E0EE59FD4F80838091FA
:100C3000870281116DC081E08093820284EA61C0E5
:100C400083E08093A80210921702CFCF8091170201
:100C5000803208F051C0E091170281E08E0F80933E
:100C600017028091BB00F0E0E950FE4F8083BDCFBA
:100C700085EC8093BC001092A8028091170280320C
:100C800030F4E0911702F0E0E950FE4F10826091DD
:100C9000170270E0E0912102F091220287EF91E0CB
:100CA00009951092170236C084E08093A802109232
:100CB000F6011092F501E0912302F09124020995CA
:100CC0008091F501811105C081E08093F5011092BA
:100CD000D501E091F60181E08E0F8093F601F0E0FE
:100CE000EB52FE4F80818093BB009091F601809182
:100CF000F501981708F479CF85E88093BC000AC005
:100D000085EC8093BC001092A80204C01092860269
:100D10000E943505FF91EF91BF91AF919F918F9107
:100D20007F916F915F914F913F912F910F900FBEE7
:100D30000F901F9018958F929F92AF92BF92CF9273
:100D4000DF92EF92FF920F931F93CF93DF93F82ED2
:100D5000D62F613208F0BBC00E946B044B015C01CE
:100D6000C091A802CC2331F18091AA029091AB02EC
:100D7000A091AC02B091AD02892B8A2B8B2B81F311
:100D80000E946B040091AA021091AB022091AC0268
:100D90003091AD02DC01CB0188199909AA09BB0980
:100DA000081719072A073B07D8F68091A9020E9465
:100DB00014058DC081E08093A802809387029FEF85
:100DC00090938602109285029D0F909384028093E7
:100DD0008302909183028F2D880F892B8093830249
:100DE00080918202813089F5109282020E946B0408
:100DF0006B017C01809183028093BB008091AA02E9
:100E00009091AB02A091AC02B091AD02892B8A2BDC
:100E10008B2BA9F00E946B048090AA029090AB02E9
:100E2000A090AC02B090AD02DC01CB018C199D0901
:100E3000AE09BF0988169906AA06BB0690F18091F3
:100E4000BC0083FDD7CF85EC01C085EE8093BC004C
:100E50000E946B046B017C018091A802813031F506
:100E60008091AA029091AB02A091AC02B091AD0228
:100E7000892B8A2B8B2B81F30E946B048090AA0212
:100E80009090AB02A090AC02B090AD02DC01CB011F
:100E90008C199D09AE09BF0988169906AA06BB06DA
:100EA000D8F68091A9020E94140512C08091850293
:100EB0008D1710F4D0918502E2E6F2E0A8E8B2E0E6
:100EC000C0E0CD1729F081918D93CF5FFACFC0E0BC
:100ED0008C2FDF91CF911F910F91FF90EF90DF90BA
:100EE000CF90BF90AF909F908F900895009769F03A
:100EF000FC0101900020E9F73197AF01481B590B25
:100F0000BC018EEA92E00C94C50080E090E0089568
:100F1000CF93DF930E947607EC0181ED91E00E9470
:100F200076078C0F9D1FDF91CF91089591E09093EC
:100F30006102809398031092600210925F020895FC
:100F4000613208F060E20E949B0610925E0280937C
:100F50005D0208958F929F92AF92BF92CF92DF92DF
:100F6000EF92FF920F931F93CF93DF9310915F0245
:100F7000113208F0C2C0D09198030E946B046B013B
:100F80007C01C091A802CC2311F18091AA0290911A
:100F9000AB02A091AC02B091AD02892B8A2B8B2BB6
:100FA00081F30E946B048090AA029090AB02A09003
:100FB000AC02B090AD02DC01CB018C199D09AE09E9
:100FC000BF0988169906AA06BB06D8F682C082E039
:100FD0008093A80281E0809387028FEF809386023E
:100FE0001092850210938402ADE3B2E0E2E6F2E0F3
:100FF00080E0181721F09D9191938F5FFACF1092A6
:101000008302909183028D2F880F892B8093830216
:1010100080918202813089F5109282020E946B04D5
:101020006B017C01809183028093BB008091AA02B6
:101030009091AB02A091AC02B091AD02892B8A2BAA
:101040008B2BA9F00E946B040091AA021091AB02B5
:101050002091AC023091AD02DC01CB018C199D09CD
:10106000AE09BF09081719072A073B0790F18091BD
:10107000BC0083FDD7CF85EC01C085EE8093BC001A
:101080000E946B046B017C018091A802823039F5CB
:101090008091AA029091AB02A091AC02B091AD02F6
:1010A000892B8A2B8B2B81F30E946B040091AA025F
:1010B0001091AB022091AC023091AD02DC01CB016A
:1010C0008C199D09AE09BF09081719072A073B07A4
:1010D000D8F68091A9020E941405C5E013C0809142
:1010E00086028F3F79F080918602803241F08091B4
:1010F0008602803331F0C4E005C0C1E003C0C2E025
:1011000001C0C3E01092600210925F02109261026F
:101110008C2FDF91CF911F910F91FF90EF90DF9077
:10112000CF90BF90AF909F908F900895682F8BE4E1
:1011300093E00C94BD02BF92CF92DF92EF92FF92A8
:101140000F931F93CF93DF9387E70E9496078EE15B
:1011500090E00E9496080E94AA076AE070E080E092
:1011600090E00E94900487E5E82E83E0F82EC0EA24
:10117000D0E000E010E087E70E949607CE010E94D1
:1011800096080E94AA0762E087E70E949B061092D9
:101190005E0280935D02080F111D8BE493E00E94B4
:1011A0007402B82E8BE493E00E947402DB2CC12CF5
:1011B0008C299D29F701819391937F012296C03B51
:1011C000D105C9F681E0101611060CF080E0DF9120
:1011D000CF911F910F91FF90EF90DF90CF90BF9034
:1011E0000895BF92CF92DF92EF92FF920F931F93D9
:1011F000CF93DF9386E70E9496078EE190E00E94EE
:1012000096080E94AA076AE070E080E090E00E94E1
:101210009004E3E7EE2EE3E0FE2E00EA10E086E71E
:101220000E949607C8010E9496080E94AA0762E0E1
:1012300086E70E949B0610925E0280935D028BE41B
:1012400093E00E947402B82E8BE493E00E94740233
:10125000DB2CC12C8C299D29F701819391937F016F
:101260000E5F1F4F0E3A1105D1F6809173039091D6
:101270007403A92FA295AF709F709093740380930D
:101280007303109282031092810340E050E020E04B
:1012900030E0CA0195958795880F991FFC01ED589C
:1012A000FC4F40FF04C08081282788E00AC081816C
:1012B000C82F90E0D92F2C273D27F7CF9B018150D5
:1012C00049F0B901660F771F37FFF8CF9B01E0E3C4
:1012D0003E27F5CF4F5F5F4F40315105D1F6932F39
:1012E00092959F7081E0A91380E0DF91CF911F91CB
:1012F0000F91FF90EF90DF90CF90BF900895CF9324
:10130000DF93CDB7DEB7A3970FB6F894DEBF0FBE5D
:10131000CDBF789484B5826084BD84B5816084BD7E
:1013200085B5826085BD85B5816085BD80916E0083
:10133000816080936E0010928100809181008260B4
:1013400080938100809181008160809381008091F1
:1013500080008160809380008091B10084608093E0
:10136000B1008091B00081608093B00080917A00DC
:10137000846080937A0080917A00826080937A0002
:1013800080917A00816080937A0080917A008068F1
:1013900080937A001092C10099E288E10FB6F89428
:1013A000A895809360000FBE90936000E091BE020C
:1013B000F091BF0282E08083E091BA02F091BB021B
:1013C0001082E091BC02F091BD028FEC80831092FC
:1013D000C602E091C202F091C30286E08083E091F0
:1013E000C002F091C102808180618083E091C002DF
:1013F000F091C102808188608083E091C002F09109
:10140000C102808180688083E091C002F091C102B6
:1014100080818F7D808380E391E00E948807109215
:101420005E0210925D021092600210925F020E94B2
:10143000460283EC90E0909324028093230284EC94
:1014400090E0909322028093210288EF8093B8006D
:101450000E94F10890E0909328028093270204E014
:1014600010E01A8309838091270290912802892B2A
:10147000D1F409811A81015011091A830983012BC2
:1014800091F089E391E00E94880768EE73E080E0C4
:1014900090E00E9490040E94F10890E0909328024E
:1014A00080932702E0CF1092930380E090EAA0E8B7
:1014B000B4E48093940390939503A0939603B09320
:1014C00097030E949B0890E0909326028093250248
:1014D00004E010E01A83098380912502909126028E
:1014E000892BD1F409811A81015011091A830983CA
:1014F000012BC9F08CE591E00E94880768EE73E04B
:1015000080E090E00E9490040E949B0890E09093FD
:10151000260280932502E0CF809127029091280235
:10152000892B09F071C48FE791E00E94880768EE6B
:1015300073E080E090E00E949004F9CF970140E0D2
:1015400050E060E070E080E090E000E10E943F1732
:10155000F22E132F1A014B0189879983BF0180E076
:1015600090E0A30192010E940517D22EE32E042FD2
:10157000B52FF62FE72FB82EC92EA0E00E949417A2
:101580005CF4AFE70E947F17D22EE32E042FB52F15
:10159000F62FE72FB82EC92E2D2D3E2D402F5B2F75
:1015A0006F2F7E2F8B2D9C2D07E00E94581759011D
:1015B0006A01E62EF72F082FE92F2F2D312FA101D9
:1015C000B40189859981FF2E1E2F0E9476172D8BDD
:1015D0003E8B4F8B588F698F7A8F8B8F9C8FE091CA
:1015E0007B03F0917C03209177033091780340E0F6
:1015F00050E060E070E080E090E001E10E943F1781
:10160000F22E132F1A014B0189879983BF0180E0C5
:1016100090E0A30192010E940517D22EE32E042F21
:10162000B52FF62FE72FB82EC92EA0E00E949417F1
:101630005CF4AFE30E947F17D22EE32E042FB52F68
:10164000F62FE72FB82EC92E2D2D3E2D402F5B2FC4
:101650006F2F7E2F8B2D9C2D06E00E94581759016D
:101660006A01E62EF72F082FE92F2F2D312FA10128
:10167000B40189859981FF2E1E2F0E9476172AA317
:101680003BA3342E252E698B7A8B8B8B9C8BED8C18
:10169000FE8C0F8D18A1A801970160E070E0CB01CE
:1016A00029833A834B835C836D837E838F83988702
:1016B00093018201330F000B102F980109831A83C5
:1016C0002B833C8360917F037091800380E090E0E6
:1016D000A30192010E940517F22E032F142FB52F9C
:1016E000F62FE72FD82EE92EA0E00E94941784F45D
:1016F0002150310940485F4F6F4F7F4F8F4F9F4FB1
:10170000F22E032F142FB52FF62FE72FD82EE92E08
:101710002F2D302F412F5B2F6F2F7E2F8D2D9E2D44
:1017200007E10E94581749015A01A501940120536D
:10173000384F4F4F5F4F2D873E874F87588B39A1CA
:10174000313009F0ECC44D855E856F857889403D68
:101750005740610571050CF0A2C5C301B2012BE031
:1017600030E040E050E00E94051752016301E9803B
:10177000FE2C0E2D1E2D0E94AC16F22E032F142FC0
:10178000B52FF62FE72FD82EE92EA0E00E94941750
:1017900084F42150310941095109684F7F4F8F4F1F
:1017A0009F4FF22E032F142FB52FF62FE72FD82E91
:1017B000E92E2F2D302F412F5B2F6F2F7E2F8D2D58
:1017C0009E2D03E20E94581729833A834B835C8342
:1017D000AFE1B0E08D849E84AF84B88890ED891A23
:1017E00097E0990AA108B108A50194010E94A116E9
:1017F0009B01AC01C501B4010E946F167B018C01F5
:1018000023E015950795F794E7942A95D1F7AFE370
:10181000B0E0A50194010E94A1169B01AC01C50195
:10182000B4010E946F162B013C0135E0759467945A
:10183000579447943A95D1F7B801A701770F440B15
:10184000542FBA0149875A876B877C872AA13BA10D
:10185000432D522D69897A898B899C8957016801AA
:10186000E984FE2C0E2D1E2D0E948B171901498B29
:101870005A8B6B8B7C8B4C01C301B201990F660BA9
:10188000762FCB0169877A878B879C872D893E8944
:101890004F89588D698D7A8D8B8D9C8D5201630196
:1018A000E984FE2C0E2D1E2D0E948B1759016A0112
:1018B0007B018C018D859E85AF85B88929813A8110
:1018C0004B815C81821B930BA40BB50B80938B0324
:1018D00090938C03A0938D03B0938E0339A1313084
:1018E00009F0E8C46D8D7E8D8F8D98A1AB01BC0190
:1018F00080E090E0DC0149835A836B837C838D8395
:101900009E83AF83B8879A01AB0160E070E080E00E
:1019100090E00E94AC16122F39874983B52FF62F1D
:10192000E72FF82E092FA0E00E94941784F421508D
:101930003109404E5F4F6F4F7F4F8F4F9F4F122F98
:1019400039874983B52FF62FE72FF82E092F212F3E
:10195000398549815B2F6F2F7E2F8F2D902F05E1C9
:101960000E9458175101C988DA88EB88FC888401E5
:101970000E948B17122F39874983B52FF62FE72F37
:10198000F82E092FA0E00E94941784F421503048CB
:101990004F4F5F4F6F4F7F4F8F4F9F4F122F3987A2
:1019A0004983B52FF62FE72FF82E092F212F3985E0
:1019B00049815B2F6F2F7E2F8F2D902F0FE00E947C
:1019C000581720938F0330939003409391035093C3
:1019D000920364E670E080E090E00E949004E09062
:1019E0009303E9820E2D60918F0370919003809193
:1019F000910390919203013009F0C8C40E94C3136F
:101A000020E030E048EC52E40E9420134B015C01DE
:101A10006093390270933A0280933B0290933C02A8
:101A200060918B0370918C0380918D0390918E0354
:101A30000E94C31320E030E048EC52E40E942013DF
:101A40002B013C016093350270933602809337027C
:101A500090933802198160918F0370919003809167
:101A6000910390919203113009F097C40E94C3131F
:101A700020E030E048EC52E40E94781420E030E0AE
:101A800048EC52E40E94201320E03AED45EC57E484
:101A90000E94AE126B017C012AE038EE4CE151E469
:101AA00060919403709195038091960390919703B0
:101AB0000E9478149B01AC01C701B6010E9420135B
:101AC0006093310270933202809333029093340218
:101AD000098160918F03709190038091910390919F
:101AE0009203013009F066C40E94C31320E030E085
:101AF00048EC52E40E94201320E030E54DE754E426
:101B00000E9420132FEC39ED42E45EE30E94E514BD
:101B10009B01AC0160E070E080E89FE30E94AE12A0
:101B20002DE935EF4DE058E40E9478142FEB3EE0AC
:101B30004CE95EE30E94781460932D0270932E02AC
:101B400080932F029093300287E70E94960788E4E3
:101B500090E00E9496080E94AA076AE070E080E088
:101B600090E00E94900487E70E94960780E090E052
:101B70000E9496080E94AA0763E070E087E790E061
:101B80000E94A007109267031092680310926903E5
:101B900010926A038BE493E00E9474026C01990F27
:101BA000EE08FF08C0926703D0926803E0926903D1
:101BB000F0926A038BE493E00E9474029C01BE2DB4
:101BC000AD2D9C2D88276901330FEE08FF08C82A28
:101BD000D92AEA2AFB2AC0926703D0926803E092CE
:101BE0006903F0926A038BE493E00E947402FE2C76
:101BF000ED2CDC2CCC24AC01990F660B770BD701B4
:101C0000C601842B952BA62BB72B8093670390934B
:101C10006803A0936903B0936A03692F7A2F8B2F0F
:101C2000992760936F03709370038093710390936F
:101C300072030E94C1136B017C0120E030E040E898
:101C400050E40E94E51469837A838B839C8320E0AF
:101C500030E040E450E4C701B6010E94E5146D870E
:101C60007E878F87988B6091590370915A0380E02B
:101C700090E00E94C11320E030E040E050EC0E9470
:101C8000781427E237ED48E552E60E9420132981B7
:101C90003A814B815C810E94781469837A838B83BB
:101CA0009C8360915B0370915C0380E090E00E94F4
:101CB000C11320E030E040E850E40E9478142AECA0
:101CC0003BE14EE05AE50E9420132D853E854F856D
:101CD00058890E9478149B01AC0169817A818B81BB
:101CE0009C810E94AF1269837A838B839C8360916D
:101CF0005D0370915E0380E090E00E94C11320E0DC
:101D000030E040E050EC0E94781427EB33E44AEBDB
:101D100051E50E9420136D877E878F87988BA701DE
:101D20009601C701B6010E9478149B01AC016D8534
:101D30007E858F8598890E9478149B01AC0169810A
:101D40007A818B819C810E94AF1269837A838B8315
:101D50009C8360915F037091600380E090E00E943B
:101D6000C11320E034E244E759E40E942013A701A4
:101D700096010E9478149B01AC0169817A818B8164
:101D80009C810E94AF126B017C0160916103709194
:101D9000620380E090E00E94C11320E030E040EC5C
:101DA0005FEB0E94781420E030E048EC52E40E949F
:101DB00020139B01AC01C701B6010E94AF126B0159
:101DC0007C0160936B0370936C0380936D0390931D
:101DD0006E036093290270932A0280932B029093E2
:101DE0002C0220E030E04AEF53E4C501B4010E9428
:101DF000731418160CF4E5C264E873E080E090E018
:101E00000E9490040E94C701A89586E70E94960749
:101E10008AE490E00E9496080E94AA0764E170E0BC
:101E200080E090E00E94900486E70E94960780E0A0
:101E300090E00E9496080E94AA0763E070E086E79F
:101E400090E00E94A00710928303109284031092E6
:101E50008503109286038BE493E00E9474024C0188
:101E6000990FAA08BB088092830390928403A092E2
:101E70008503B09286038BE493E00E947402BA2C2F
:101E8000A92C982C88246C01990FEE08FF08C8280B
:101E9000D928EA28FB28C0928303D0928403E092D9
:101EA0008503F09286038BE493E00E947402FE2C7B
:101EB000ED2CDC2CCC24092E000CAA0BBB0BC82A61
:101EC000D92AEA2AFB2AC0928303D0928403E092A3
:101ED0008503F092860386E70E9496078AE590E0E4
:101EE0000E9496080E94AA0764E170E080E090E0FA
:101EF0000E94900486E70E94960780E090E00E948E
:101F000096080E94AA0763E070E086E790E00E94CE
:101F1000A0071092870310928803109289031092F1
:101F20008A038BE493E00E9474026C01990FEE081F
:101F3000FF08C0928703D0928803E0928903F09251
:101F40008A038BE493E00E947402FE2CED2CDC2CBF
:101F5000CC242C01990F660877084C285D286E2840
:101F60007F28409287035092880360928903709281
:101F70008A038BE493E00E947402762C652C542C27
:101F80004424092E000CAA0BBB0B482A592A6A2AA2
:101F90007B2A409287035092880360928903709253
:101FA0008A0380917D0390917E03A0E0B0E0BA2F78
:101FB000A92F982F8827481A590A6A0A7B0A109174
:101FC000930319A3E0917903F0917A03E0907503EC
:101FD000F0907603FA82E9820091830310918403E2
:101FE00020918503309186030D8F1E8F2F8F38A38C
:101FF00019A1113009F4A2CABF0180E090E0A30149
:1020000092010E940517F22E032F142FB52FF62FE1
:10201000E72FD82EE92EA0E00E94941784F42150D7
:102020003F4F4F4F5F4F6F4F7F4F8F4F9F4FF22E5E
:10203000032F142FB52FF62FE72FD82EE92E2F2D93
:10204000302F412F5B2F6F2F7E2F8D2D9E2D08E07F
:102050000E94581719014A01B62FA72FF82FE92F10
:1020600029813A81C12CD12CA60160E070E080E08A
:1020700090E00FE00E943F1759016A017B018C013B
:102080009101A4016B2F7A2F8F2F9E2F0E9476171C
:102090002D8B3E8B4F8B588F698F7A8F8B8F9C8FB8
:1020A000E0917B03F0917C032091770330917803DA
:1020B00040E050E060E070E080E090E000E10E94ED
:1020C0003F17F22E132F1A014B0189879983BF0105
:1020D00080E090E0A30192010E940517D22EE32E2A
:1020E000042FB52FF62FE72FB82EC92EA0E00E949F
:1020F00094175CF4AFE70E947F17D22EE32E042FD3
:10210000B52FF62FE72FB82EC92E2D2D3E2D402F9F
:102110005B2F6F2F7E2F8B2D9C2D07E09ECA0D8588
:102120001E852F853889003D1740210531050CF0AB
:10213000A2C0C301B20123E030E040E050E00E94C1
:10214000051752016301E980FE2C0E2D1E2D0E9401
:10215000AC16F22E032F142FB52FF62FE72FD82E03
:10216000E92EA0E00E94941784F42150310941091E
:1021700051096E4F7F4F8F4F9F4FF22E032F142F19
:10218000B52FF62FE72FD82EE92E2F2D302F412FE8
:102190005B2F6F2F7E2F8D2D9E2D01E20E945817F1
:1021A00029833A834B835C83A3E0B0E08D849E84D3
:1021B000AF84B88850ED851A57E0950AA108B10898
:1021C000A50194010E94A1169B01AC01C501B401B7
:1021D0000E946F167B018C0115950795F794E79483
:1021E000A5E0B0E0A50194010E94A1169B01AC01FD
:1021F000C501B4010E946F162B013C0193E0759458
:102200006794579447949A95D1F76D857E858F850D
:102210009889613CA9EF7A07AFEF8A079A070CF01B
:102220000BCBA7E0B0E04B015C012CED820E25E06A
:10223000921EA11CB11CA50194010E94A1169B0134
:10224000AC01C501B4010E946F16E60EF71E081F0F
:10225000191FA5019401B2E0220F331F441F551F1F
:10226000BA95D1F7C501B4010E946F16460E571EEC
:10227000681E791EE1CAA5019401C501B4010E943E
:102280006F167B018C01A4E015950795F794E794F0
:10229000AA95D1F719821A821B821C8207C0198263
:1022A0001A821B821C82E12CF12C8701412C512CBB
:1022B0003201C2CA4D8D5E8D6F8D78A19A01AB013E
:1022C00060E070E0CB0129833A834B835C836D83AC
:1022D0007E838F83988760E070E080E090E00E94CA
:1022E000AC16122F39874983B52FF62FE72FF82E1A
:1022F000092FA0E00E94941784F421503109404E28
:102300005F4F6F4F7F4F8F4F9F4F122F39874983FA
:10231000B52FF62FE72FF82E092F212F3985498168
:102320005B2F6F2F7E2F8F2D902F05E10E94581766
:102330005101C988DA88EB88FC8884010E948B17D8
:10234000122F39874983B52FF62FE72FF82E092F43
:10235000A0E00E94941784F42150304E4F4F5F4FFD
:102360006F4F7F4F8F4F9F4F122F39874983B52F64
:10237000F62FE72FF82E092F212F398549815B2F62
:102380006F2F7E2F8F2D902F0DE019CB0E94C3133E
:1023900020E030E040E251E437CB0E94C31320E05C
:1023A00030E048EC52E40E94781420E030E040E253
:1023B00051E468CB0E94C31320E030E040E251E4D6
:1023C00099CB20E030E040E450ECC301B2010E9420
:1023D000731418160CF010CD20E030E040E450ECFF
:1023E000C701B6010E94731418160CF005CD20E049
:1023F00030E84BEB55E4C501B4010E941B1387FF85
:10240000FBCC20E030E048EC52E4C301B2010E9472
:102410001B1387FFF1CC20E030E048EC52E4C70109
:10242000B6010E941B1387FFE7CC81EB91E00E946D
:1024300076076091390270913A0280913B02909147
:102440003C0242E00E94F00284EB91E00E94760799
:102450006091350270913602809137029091380276
:1024600042E00E94F0028AEB91E00E9476076091C0
:10247000310270913202809133029091340242E035
:102480000E94F00283EC91E00E94760760912D0299
:1024900070912E0280912F029091300242E00E94B2
:1024A000F0028AEC91E00E9476078DEC91E00E94A8
:1024B00076076091290270912A0280912B029091F7
:1024C0002C0242E00E94F00281ED91E00E9476072A
:1024D00093CCEEEAF2E01382128288EE93E0A0E061
:1024E000B0E084839583A683B78324E031E0318311
:1024F000208325EC30E03587248724EC30E03787D3
:10250000268720EC30E0318B208B21EC30E0338BC0
:10251000228B22EC30E0358B248B26EC30E0378B9D
:10252000268B118E128E138E148EEBE4F3E0138241
:10253000128284839583A683B78386E191E0918399
:10254000808380E090EAA0E8B4E4809394039093C1
:102550009503A0939603B093970308955058BB2713
:10256000AA270E94C6120C9439140E942B1438F02A
:102570000E94321420F039F49F3F19F426F40C9491
:1025800028140EF4E095E7FB0C942214E92F0E9426
:102590004A1458F3BA17620773078407950720F0A7
:1025A00079F4A6F50C946C140EF4E0950B2EBA2F6A
:1025B000A02D0B01B90190010C01CA01A001112449
:1025C000FF27591B99F0593F50F4503E68F11A16F5
:1025D000F040A22F232F342F4427585FF3CF469586
:1025E00037952795A795F0405395C9F77EF41F16A8
:1025F000BA0B620B730B840BBAF09150A1F0FF0F72
:10260000BB1F661F771F881FC2F70EC0BA0F621F5D
:10261000731F841F48F4879577956795B795F7954D
:102620009E3F08F0B0CF9395880F08F09927EE0FE2
:102630009795879508950E94FE1308F481E0089508
:102640000E9434130C9439140E94321458F00E94E2
:102650002B1440F029F45F3F29F00C9422145111FF
:102660000C946D140C9428140E944A1468F3992356
:10267000B1F3552391F3951B550BBB27AA2762177E
:102680007307840738F09F5F5F4F220F331F441F8B
:10269000AA1FA9F335D00E2E3AF0E0E832D09150BF
:1026A0005040E695001CCAF72BD0FE2F29D0660FAC
:1026B000771F881FBB1F261737074807AB07B0E8EF
:1026C00009F0BB0B802DBF01FF2793585F4F3AF0F5
:1026D0009E3F510578F00C9422140C946D145F3FCA
:1026E000E4F3983ED4F3869577956795B795F7957B
:1026F0009F5FC9F7880F911D9695879597F9089563
:10270000E1E0660F771F881FBB1F621773078407FE
:10271000BA0720F0621B730B840BBA0BEE1F88F70D
:10272000E09508950E94521488F09F5798F0B92FB1
:102730009927B751B0F0E1F0660F771F881F991FF6
:102740001AF0BA95C9F714C0B13091F00E946C1418
:10275000B1E008950C946C14672F782F8827B85F28
:1027600039F0B93FCCF3869577956795B395D9F74E
:102770003EF490958095709561957F4F8F4F9F4F58
:102780000895E89409C097FB3EF490958095709564
:1027900061957F4F8F4F9F4F9923A9F0F92F96E9AD
:1027A000BB279395F695879577956795B795F11122
:1027B000F8CFFAF4BB0F11F460FF1BC06F5F7F4FBF
:1027C0008F4F9F4F16C0882311F096E911C07723D1
:1027D00021F09EE8872F762F05C0662371F096E8DA
:1027E000862F70E060E02AF09A95660F771F881FA9
:1027F000DAF7880F9695879597F90895990F00084D
:10280000550FAA0BE0E8FEEF16161706E807F907C2
:10281000C0F012161306E407F50798F0621B730B5D
:10282000840B950B39F40A2661F0232B242B252BDE
:1028300021F408950A2609F4A140A6958FEF811D81
:10284000811D089597F99F6780E870E060E0089522
:102850009FEF80EC089500240A94161617061806B8
:102860000906089500240A94121613061406050694
:102870000895092E0394000C11F4882352F0BB0F25
:1028800040F4BF2B11F460FF04C06F5F7F4F8F4F88
:102890009F4F089557FD9058440F551F59F05F3FC3
:1028A00071F04795880F97FB991F61F09F3F79F072
:1028B00087950895121613061406551FF2CF4695F4
:1028C000F1DF08C0161617061806991FF1CF869576
:1028D0007105610508940895E894BB27662777275A
:1028E000CB0197F908950E94FE1308F48FEF089525
:1028F0000E948B140C9439140E942B1438F00E94FF
:10290000321420F0952311F00C9422140C94281406
:1029100011240C946D140E944A1470F3959FC1F316
:10292000950F50E0551F629FF001729FBB27F00D7D
:10293000B11D639FAA27F00DB11DAA1F649F6627D2
:10294000B00DA11D661F829F2227B00DA11D621F21
:10295000739FB00DA11D621F839FA00D611D221FDB
:10296000749F3327A00D611D231F849F600D211DBF
:10297000822F762F6A2F11249F5750409AF0F1F042
:1029800088234AF0EE0FFF1FBB1F661F771F881FAB
:1029900091505040A9F79E3F510580F00C942214AD
:1029A0000C946D145F3FE4F3983ED4F386957795CD
:1029B0006795B795F795E7959F5FC1F7FE2B880F51
:1029C000911D9695879597F90895FA01EE0FFF1FCF
:1029D000309621053105A1F16115710561F480384A
:1029E000BFE39B0749F168949038810561F0803816
:1029F000BFEF9B0741F099234AF5FF3FE105310501
:102A0000210519F1E8940894E795D901AA2329F43E
:102A1000AB2FBE2FF85FD0F310C0FF5F70F4A69508
:102A2000E0F7F73950F019F0FF3A38F49F779F93A9
:102A30000DD00F9007FC9058089546F00C94281480
:102A400060E070E080E89FE308954FE79F775F9331
:102A50004F933F932F930E94E5152F913F914F91F4
:102A60005F910E9478140C9442150E94FE13880B0B
:102A7000990B089529F416F00C9422140C946C14FC
:102A80000C9428140E945214A8F39638A0F707F863
:102A90000F92E8942BE33AEA48EB5FE70E948E142A
:102AA0000F920F920F924DB75EB70F920E942D16A4
:102AB000E8E6F0E00E9474154F915F91EF91FF916D
:102AC000E595EE1FFF1F49F0FE57E0684427EE0F23
:102AD000441FFA95E1F74195550B0E94A7150F90F9
:102AE00007FE0C949B150895DF93CF931F930F93CC
:102AF000FF92EF92DF927B018C01689406C0DA2E80
:102B0000EF010E948B14FE01E894A5912591359167
:102B100045915591A6F3EF010E94C612FE0197015F
:102B2000A801DA9469F7DF90EF90FF900F911F9161
:102B3000CF91DF9108959B01AC0160E070E080E8E7
:102B40009FE30C9420130C9422140C9461160E94A1
:102B50005214D8F39923C9F3940F511DA3F3915044
:102B6000504094F059F0882332F0660F771F881F89
:102B700091505040C1F79E3F51052CF7880F911D91
:102B80009695879597F908955F3FACF0983E9CF035
:102B9000BB27869577956795B79508F4B1609395AF
:102BA000C1F7BB0F58F711F460FFE8CF6F5F7F4F9D
:102BB0008F4F9F4FE3CF0C946D1416F00C94611659
:102BC0000C94281468940C9422140E945214A8F3B4
:102BD0009923C1F3AEF3DF93CF931F930F93FF922B
:102BE000C92FDD2788232AF02197660F771F881FBA
:102BF000DAF720E030E040E85FEB9FE3883920F02F
:102C0000803E38F021968F770E94AF12E0E9F0E025
:102C100004C00E94AF12EDEBF0E00E9474158B012E
:102C2000BE01EC01FB2E6F5771097595771F880B5C
:102C3000990B0E94C31328E132E741E35FE30E944E
:102C40008B14AF2D9801AE01FF900F911F91CF9182
:102C5000DF910E94C6120C943914FA01DC01AA0F0C
:102C6000BB1F9B01AC01BF5728F422273327442701
:102C7000507820C0B75190F4AB2F0024469537957B
:102C80002795011CA395D2F3002071F0220F331F6A
:102C9000441FB395DAF30ED00C94AE126130710577
:102CA000A0E88A07B94630F49B01AC016627772774
:102CB00088279078309621F0208331834283538394
:102CC00008959F3F31F0915020F48795779567954F
:102CD000B795880F911D9695879597F90895DB0113
:102CE0008F939F930E94A116BF91AF91A29F800DD9
:102CF000911DA39F900DB29F900D11240895A1E204
:102D00001A2EAA1BBB1BFD010DC0AA1FBB1FEE1F65
:102D1000FF1FA217B307E407F50720F0A21BB30BB0
:102D2000E40BF50B661F771F881F991F1A9469F72C
:102D300060957095809590959B01AC01BD01CF0188
:102D400008950E94A617A59F900DB49F900DA49F73
:102D5000800D911D11240895DF93CF931F930F933E
:102D60009A9DF02D219FF00D8B9DF00D8A9DE02DF9
:102D7000F10D039FF00D029FE00DF11D4E9DE00D42
:102D8000F11D5E9DF00D4F9DF00D7F936F93BF92EF
:102D9000AF925F934F93D5010E94A6178B01AC01B0
:102DA000D7010E94A617EB01E80FF91FD6010E9478
:102DB000FC162F913F91D6010E94A617C60FD71F70
:102DC000E81FF91FAF91BF910E94FC162F913F9110
:102DD0000E94A617C60FD71FE81FF91FD6010E9431
:102DE000A617E60FF71F9801BE01CF0111240F911E
:102DF0001F91CF91DF9108950E94A617460F571F8C
:102E0000C81FD91F08F43196089597FB57FF0C94FB
:102E100015179F938F930E9415176E1B7F0BAF9111
:102E2000BF918A0B9B0B0895E894DF93CF93FC012D
:102E3000DB010E94A6177F936F93E9019A01AC0111
:102E4000BF93AF933F932F93DF010E94A61726F401
:102E50006C1B7D0B820B930B9E01EB01FC010E940E
:102E6000FC16AF91BF912F913F910E94FC16BE01BD
:102E7000CF01F9012F913F91CF91DF9108950F93E9
:102E8000083090F0982F872F762F652F542F432FDF
:102E9000322F22270850F4CF220F331F441F551F13
:102EA000661F771F881F991F0A95B2F70F91089523
:102EB00097FB10F8169400080F93083098F008500C
:102EC000232F342F452F562F672F782F892F902DA2
:102ED000F4CF05949795879577956795579547957E
:102EE000379527950A95AAF70F9108952A0D3B1D4E
:102EF0004C1D5D1D6E1D7F1D801F911F08950024B8
:102F0000A7FD00942A0F301D401D501D601D701D2F
:102F1000801D901D08952A193B094C095D096E0911
:102F20007F09800B910B08950024A7FD00942A17B8
:102F30003005400550056005700580059005089531
:102F4000EE0FFF1F0590F491E02D0994A29FB001B0
:102F5000B39FC001A39F700D811D1124911DB29FCD
:102F6000700D811D1124911D089581E090E0F89469
:082F70000C94BA17F894FFCF8E
:102F7800000000005801C500EF00A5012001FE0077
:102F8800120100000000BD029002ED0264028802F6
:102F9800740265026E616E00696E66006F76660087
:102FA8005374617274696E67004D53353833372036
:102FB800496E6974206661696C65642C2072657459
:102FC800727920696E203120736563005453595318
:102FD800303120496E6974206661696C65642C2003
:102FE800726574727920696E2031207365630049B7
:102FF80074206973206E65736573736172792066D6
:103008006F7220626F74682073656E736F727320BD
:10301800746F20776F726B20746F67657468657260
:1030280000503A002C2054313A002C20446570742A
:10303800683A002C20416C743A002C200054323A33
:04304800000D0A006D
:00000001FF
